{
  "contractName": "Dex",
  "abi": [
    {
      "anonymous": false,
      "inputs": [
        {
          "indexed": true,
          "internalType": "address",
          "name": "previousOwner",
          "type": "address"
        },
        {
          "indexed": true,
          "internalType": "address",
          "name": "newOwner",
          "type": "address"
        }
      ],
      "name": "OwnershipTransferred",
      "type": "event"
    },
    {
      "inputs": [
        {
          "internalType": "bytes32",
          "name": "ticker",
          "type": "bytes32"
        },
        {
          "internalType": "address",
          "name": "tokenAddress",
          "type": "address"
        }
      ],
      "name": "addToken",
      "outputs": [],
      "stateMutability": "nonpayable",
      "type": "function"
    },
    {
      "inputs": [
        {
          "internalType": "address",
          "name": "",
          "type": "address"
        },
        {
          "internalType": "bytes32",
          "name": "",
          "type": "bytes32"
        }
      ],
      "name": "balances",
      "outputs": [
        {
          "internalType": "uint256",
          "name": "",
          "type": "uint256"
        }
      ],
      "stateMutability": "view",
      "type": "function",
      "constant": true
    },
    {
      "inputs": [
        {
          "internalType": "uint256",
          "name": "amount",
          "type": "uint256"
        },
        {
          "internalType": "bytes32",
          "name": "ticker",
          "type": "bytes32"
        }
      ],
      "name": "deposit",
      "outputs": [],
      "stateMutability": "nonpayable",
      "type": "function"
    },
    {
      "inputs": [],
      "name": "nextOrderId",
      "outputs": [
        {
          "internalType": "uint256",
          "name": "",
          "type": "uint256"
        }
      ],
      "stateMutability": "view",
      "type": "function",
      "constant": true
    },
    {
      "inputs": [
        {
          "internalType": "bytes32",
          "name": "",
          "type": "bytes32"
        },
        {
          "internalType": "uint256",
          "name": "",
          "type": "uint256"
        },
        {
          "internalType": "uint256",
          "name": "",
          "type": "uint256"
        }
      ],
      "name": "orderBook",
      "outputs": [
        {
          "internalType": "uint256",
          "name": "id",
          "type": "uint256"
        },
        {
          "internalType": "address",
          "name": "trader",
          "type": "address"
        },
        {
          "internalType": "enum Dex.Side",
          "name": "side",
          "type": "uint8"
        },
        {
          "internalType": "bytes32",
          "name": "ticker",
          "type": "bytes32"
        },
        {
          "internalType": "uint256",
          "name": "amount",
          "type": "uint256"
        },
        {
          "internalType": "uint256",
          "name": "price",
          "type": "uint256"
        }
      ],
      "stateMutability": "view",
      "type": "function",
      "constant": true
    },
    {
      "inputs": [],
      "name": "owner",
      "outputs": [
        {
          "internalType": "address",
          "name": "",
          "type": "address"
        }
      ],
      "stateMutability": "view",
      "type": "function",
      "constant": true
    },
    {
      "inputs": [],
      "name": "renounceOwnership",
      "outputs": [],
      "stateMutability": "nonpayable",
      "type": "function"
    },
    {
      "inputs": [
        {
          "internalType": "uint256",
          "name": "",
          "type": "uint256"
        }
      ],
      "name": "tokenList",
      "outputs": [
        {
          "internalType": "bytes32",
          "name": "",
          "type": "bytes32"
        }
      ],
      "stateMutability": "view",
      "type": "function",
      "constant": true
    },
    {
      "inputs": [
        {
          "internalType": "bytes32",
          "name": "",
          "type": "bytes32"
        }
      ],
      "name": "tokenMapping",
      "outputs": [
        {
          "internalType": "bytes32",
          "name": "ticker",
          "type": "bytes32"
        },
        {
          "internalType": "address",
          "name": "tokenAddress",
          "type": "address"
        }
      ],
      "stateMutability": "view",
      "type": "function",
      "constant": true
    },
    {
      "inputs": [
        {
          "internalType": "address",
          "name": "newOwner",
          "type": "address"
        }
      ],
      "name": "transferOwnership",
      "outputs": [],
      "stateMutability": "nonpayable",
      "type": "function"
    },
    {
      "inputs": [
        {
          "internalType": "uint256",
          "name": "amount",
          "type": "uint256"
        },
        {
          "internalType": "bytes32",
          "name": "ticker",
          "type": "bytes32"
        }
      ],
      "name": "withdraw",
      "outputs": [],
      "stateMutability": "nonpayable",
      "type": "function"
    },
    {
      "inputs": [],
      "name": "depositETH",
      "outputs": [],
      "stateMutability": "payable",
      "type": "function",
      "payable": true
    },
    {
      "inputs": [
        {
          "internalType": "bytes32",
          "name": "ticker",
          "type": "bytes32"
        },
        {
          "internalType": "enum Dex.Side",
          "name": "side",
          "type": "uint8"
        }
      ],
      "name": "getOrderBook",
      "outputs": [
        {
          "components": [
            {
              "internalType": "uint256",
              "name": "id",
              "type": "uint256"
            },
            {
              "internalType": "address",
              "name": "trader",
              "type": "address"
            },
            {
              "internalType": "enum Dex.Side",
              "name": "side",
              "type": "uint8"
            },
            {
              "internalType": "bytes32",
              "name": "ticker",
              "type": "bytes32"
            },
            {
              "internalType": "uint256",
              "name": "amount",
              "type": "uint256"
            },
            {
              "internalType": "uint256",
              "name": "price",
              "type": "uint256"
            }
          ],
          "internalType": "struct Dex.Order[]",
          "name": "",
          "type": "tuple[]"
        }
      ],
      "stateMutability": "view",
      "type": "function",
      "constant": true
    },
    {
      "inputs": [
        {
          "internalType": "enum Dex.Side",
          "name": "side",
          "type": "uint8"
        },
        {
          "internalType": "bytes32",
          "name": "ticker",
          "type": "bytes32"
        },
        {
          "internalType": "uint256",
          "name": "amount",
          "type": "uint256"
        },
        {
          "internalType": "uint256",
          "name": "price",
          "type": "uint256"
        }
      ],
      "name": "createLimitOrder",
      "outputs": [],
      "stateMutability": "nonpayable",
      "type": "function"
    },
    {
      "inputs": [
        {
          "internalType": "enum Dex.Side",
          "name": "side",
          "type": "uint8"
        },
        {
          "internalType": "bytes32",
          "name": "ticker",
          "type": "bytes32"
        },
        {
          "internalType": "uint256",
          "name": "amount",
          "type": "uint256"
        }
      ],
      "name": "createMarketOrder",
      "outputs": [],
      "stateMutability": "nonpayable",
      "type": "function"
    }
  ],
  "bytecode": "0x6080604052600060045534801561001557600080fd5b5060006100266100c960201b60201c565b9050806000806101000a81548173ffffffffffffffffffffffffffffffffffffffff021916908373ffffffffffffffffffffffffffffffffffffffff1602179055508073ffffffffffffffffffffffffffffffffffffffff16600073ffffffffffffffffffffffffffffffffffffffff167f8be0079c531659141344cd1fd0a4f28419497f9722a3daafe3b4186f6b6457e060405160405180910390a3506100d1565b600033905090565b612afb80620000e16000396000f3fe6080604052600436106100e85760003560e01c80639776aacf1161008a578063ba58ea6811610059578063ba58ea68146102f8578063c9630cb014610335578063f2fde38b1461035e578063f6326fb314610387576100e8565b80639776aacf1461024057806399ec2f1c146102695780639ead722214610292578063a8d2021a146102cf576100e8565b8063667cb4ba116100c6578063667cb4ba146101975780636f3b62f9146101d5578063715018a6146101fe5780638da5cb5b14610215576100e8565b80630bb431b6146100ed5780631f14df691461012f5780632a58b3301461016c575b600080fd5b3480156100f957600080fd5b50610114600480360381019061010f91906121cd565b610391565b604051610126969594939291906126a4565b60405180910390f35b34801561013b57600080fd5b50610156600480360381019061015191906120c7565b610424565b6040516101639190612689565b60405180910390f35b34801561017857600080fd5b50610181610449565b60405161018e9190612689565b60405180910390f35b3480156101a357600080fd5b506101be60048036038101906101b9919061212c565b61044f565b6040516101cc9291906125e0565b60405180910390f35b3480156101e157600080fd5b506101fc60048036038101906101f7919061226b565b610493565b005b34801561020a57600080fd5b50610213611327565b005b34801561022157600080fd5b5061022a611461565b6040516102379190612528565b60405180910390f35b34801561024c57600080fd5b5061026760048036038101906102629190612155565b61148a565b005b34801561027557600080fd5b50610290600480360381019061028b919061221c565b6115c5565b005b34801561029e57600080fd5b506102b960048036038101906102b491906122ce565b6115ca565b6040516102c691906125c5565b60405180910390f35b3480156102db57600080fd5b506102f660048036038101906102f191906122f7565b6115ee565b005b34801561030457600080fd5b5061031f600480360381019061031a9190612191565b6118a8565b60405161032c91906125a3565b60405180910390f35b34801561034157600080fd5b5061035c600480360381019061035791906122f7565b611a69565b005b34801561036a57600080fd5b506103856004803603810190610380919061209e565b611d49565b005b61038f611ef2565b005b600560205282600052604060002060205281600052604060002081815481106103b957600080fd5b906000526020600020906005020160009250925050508060000154908060010160009054906101000a900473ffffffffffffffffffffffffffffffffffffffff16908060010160149054906101000a900460ff16908060020154908060030154908060040154905086565b6003602052816000526040600020602052806000526040600020600091509150505481565b60045481565b60016020528060005260406000206000915090508060000154908060010160009054906101000a900473ffffffffffffffffffffffffffffffffffffffff16905082565b600060018111156104cd577f4e487b7100000000000000000000000000000000000000000000000000000000600052602160045260246000fd5b846001811115610506577f4e487b7100000000000000000000000000000000000000000000000000000000600052602160045260246000fd5b14156105a05761051f8183611feb90919063ffffffff16565b600360003373ffffffffffffffffffffffffffffffffffffffff1673ffffffffffffffffffffffffffffffffffffffff16815260200190815260200160002060007f4554480000000000000000000000000000000000000000000000000000000000815260200190815260200160002054101561059b57600080fd5b610677565b6001808111156105d9577f4e487b7100000000000000000000000000000000000000000000000000000000600052602160045260246000fd5b846001811115610612577f4e487b7100000000000000000000000000000000000000000000000000000000600052602160045260246000fd5b14156106765781600360003373ffffffffffffffffffffffffffffffffffffffff1673ffffffffffffffffffffffffffffffffffffffff168152602001908152602001600020600085815260200190815260200160002054101561067557600080fd5b5b5b60006005600085815260200190815260200160002060008660018111156106c7577f4e487b7100000000000000000000000000000000000000000000000000000000600052602160045260246000fd5b81526020019081526020016000209050806040518060c0016040528060045481526020013373ffffffffffffffffffffffffffffffffffffffff168152602001876001811115610740577f4e487b7100000000000000000000000000000000000000000000000000000000600052602160045260246000fd5b81526020018681526020018581526020018481525090806001815401808255809150506001900390600052602060002090600502016000909190919091506000820151816000015560208201518160010160006101000a81548173ffffffffffffffffffffffffffffffffffffffff021916908373ffffffffffffffffffffffffffffffffffffffff16021790555060408201518160010160146101000a81548160ff02191690836001811115610820577f4e487b7100000000000000000000000000000000000000000000000000000000600052602160045260246000fd5b0217905550606082015181600201556080820151816003015560a08201518160040155505060008082805490501161085957600061086b565b6001828054905061086a91906127ff565b5b9050600060018111156108a7577f4e487b7100000000000000000000000000000000000000000000000000000000600052602160045260246000fd5b8660018111156108e0577f4e487b7100000000000000000000000000000000000000000000000000000000600052602160045260246000fd5b1415610dbc575b6000811115610db757818181548110610929577f4e487b7100000000000000000000000000000000000000000000000000000000600052603260045260246000fd5b9060005260206000209060050201600401548260018361094991906127ff565b81548110610980577f4e487b7100000000000000000000000000000000000000000000000000000000600052603260045260246000fd5b906000526020600020906005020160040154111561099d57610db7565b6000826001836109ad91906127ff565b815481106109e4577f4e487b7100000000000000000000000000000000000000000000000000000000600052603260045260246000fd5b90600052602060002090600502016040518060c0016040529081600082015481526020016001820160009054906101000a900473ffffffffffffffffffffffffffffffffffffffff1673ffffffffffffffffffffffffffffffffffffffff1673ffffffffffffffffffffffffffffffffffffffff1681526020016001820160149054906101000a900460ff166001811115610aa8577f4e487b7100000000000000000000000000000000000000000000000000000000600052602160045260246000fd5b6001811115610ae0577f4e487b7100000000000000000000000000000000000000000000000000000000600052602160045260246000fd5b815260200160028201548152602001600382015481526020016004820154815250509050828281548110610b3d577f4e487b7100000000000000000000000000000000000000000000000000000000600052603260045260246000fd5b906000526020600020906005020183600184610b5991906127ff565b81548110610b90577f4e487b7100000000000000000000000000000000000000000000000000000000600052603260045260246000fd5b9060005260206000209060050201600082015481600001556001820160009054906101000a900473ffffffffffffffffffffffffffffffffffffffff168160010160006101000a81548173ffffffffffffffffffffffffffffffffffffffff021916908373ffffffffffffffffffffffffffffffffffffffff1602179055506001820160149054906101000a900460ff168160010160146101000a81548160ff02191690836001811115610c6d577f4e487b7100000000000000000000000000000000000000000000000000000000600052602160045260246000fd5b021790555060028201548160020155600382015481600301556004820154816004015590505080838381548110610ccd577f4e487b7100000000000000000000000000000000000000000000000000000000600052603260045260246000fd5b90600052602060002090600502016000820151816000015560208201518160010160006101000a81548173ffffffffffffffffffffffffffffffffffffffff021916908373ffffffffffffffffffffffffffffffffffffffff16021790555060408201518160010160146101000a81548160ff02191690836001811115610d7d577f4e487b7100000000000000000000000000000000000000000000000000000000600052602160045260246000fd5b0217905550606082015181600201556080820151816003015560a082015181600401559050508180610dae906128aa565b925050506108e7565b611307565b600180811115610df5577f4e487b7100000000000000000000000000000000000000000000000000000000600052602160045260246000fd5b866001811115610e2e577f4e487b7100000000000000000000000000000000000000000000000000000000600052602160045260246000fd5b1415611306575b600081111561130557818181548110610e77577f4e487b7100000000000000000000000000000000000000000000000000000000600052603260045260246000fd5b90600052602060002090600502016004015482600183610e9791906127ff565b81548110610ece577f4e487b7100000000000000000000000000000000000000000000000000000000600052603260045260246000fd5b9060005260206000209060050201600401541015610eeb57611305565b600082600183610efb91906127ff565b81548110610f32577f4e487b7100000000000000000000000000000000000000000000000000000000600052603260045260246000fd5b90600052602060002090600502016040518060c0016040529081600082015481526020016001820160009054906101000a900473ffffffffffffffffffffffffffffffffffffffff1673ffffffffffffffffffffffffffffffffffffffff1673ffffffffffffffffffffffffffffffffffffffff1681526020016001820160149054906101000a900460ff166001811115610ff6577f4e487b7100000000000000000000000000000000000000000000000000000000600052602160045260246000fd5b600181111561102e577f4e487b7100000000000000000000000000000000000000000000000000000000600052602160045260246000fd5b81526020016002820154815260200160038201548152602001600482015481525050905082828154811061108b577f4e487b7100000000000000000000000000000000000000000000000000000000600052603260045260246000fd5b9060005260206000209060050201836001846110a791906127ff565b815481106110de577f4e487b7100000000000000000000000000000000000000000000000000000000600052603260045260246000fd5b9060005260206000209060050201600082015481600001556001820160009054906101000a900473ffffffffffffffffffffffffffffffffffffffff168160010160006101000a81548173ffffffffffffffffffffffffffffffffffffffff021916908373ffffffffffffffffffffffffffffffffffffffff1602179055506001820160149054906101000a900460ff168160010160146101000a81548160ff021916908360018111156111bb577f4e487b7100000000000000000000000000000000000000000000000000000000600052602160045260246000fd5b02179055506002820154816002015560038201548160030155600482015481600401559050508083838154811061121b577f4e487b7100000000000000000000000000000000000000000000000000000000600052603260045260246000fd5b90600052602060002090600502016000820151816000015560208201518160010160006101000a81548173ffffffffffffffffffffffffffffffffffffffff021916908373ffffffffffffffffffffffffffffffffffffffff16021790555060408201518160010160146101000a81548160ff021916908360018111156112cb577f4e487b7100000000000000000000000000000000000000000000000000000000600052602160045260246000fd5b0217905550606082015181600201556080820151816003015560a0820151816004015590505081806112fc906128aa565b92505050610e35565b5b5b6004600081548092919061131a906128d4565b9190505550505050505050565b61132f612001565b73ffffffffffffffffffffffffffffffffffffffff1661134d611461565b73ffffffffffffffffffffffffffffffffffffffff16146113a3576040517f08c379a000000000000000000000000000000000000000000000000000000000815260040161139a90612669565b60405180910390fd5b600073ffffffffffffffffffffffffffffffffffffffff1660008054906101000a900473ffffffffffffffffffffffffffffffffffffffff1673ffffffffffffffffffffffffffffffffffffffff167f8be0079c531659141344cd1fd0a4f28419497f9722a3daafe3b4186f6b6457e060405160405180910390a360008060006101000a81548173ffffffffffffffffffffffffffffffffffffffff021916908373ffffffffffffffffffffffffffffffffffffffff160217905550565b60008060009054906101000a900473ffffffffffffffffffffffffffffffffffffffff16905090565b611492612001565b73ffffffffffffffffffffffffffffffffffffffff166114b0611461565b73ffffffffffffffffffffffffffffffffffffffff1614611506576040517f08c379a00000000000000000000000000000000000000000000000000000000081526004016114fd90612669565b60405180910390fd5b60405180604001604052808381526020018273ffffffffffffffffffffffffffffffffffffffff16815250600160008481526020019081526020016000206000820151816000015560208201518160010160006101000a81548173ffffffffffffffffffffffffffffffffffffffff021916908373ffffffffffffffffffffffffffffffffffffffff16021790555090505060028290806001815401808255809150506001900390600052602060002001600090919091909150555050565b505050565b600281815481106115da57600080fd5b906000526020600020016000915090505481565b80600073ffffffffffffffffffffffffffffffffffffffff166001600083815260200190815260200160002060010160009054906101000a900473ffffffffffffffffffffffffffffffffffffffff1673ffffffffffffffffffffffffffffffffffffffff161415611695576040517f08c379a000000000000000000000000000000000000000000000000000000000815260040161168c90612649565b60405180910390fd5b82600360003373ffffffffffffffffffffffffffffffffffffffff1673ffffffffffffffffffffffffffffffffffffffff1681526020019081526020016000206000848152602001908152602001600020541015611728576040517f08c379a000000000000000000000000000000000000000000000000000000000815260040161171f90612609565b60405180910390fd5b6001600083815260200190815260200160002060010160009054906101000a900473ffffffffffffffffffffffffffffffffffffffff1673ffffffffffffffffffffffffffffffffffffffff1663a9059cbb33856040518363ffffffff1660e01b815260040161179992919061257a565b602060405180830381600087803b1580156117b357600080fd5b505af11580156117c7573d6000803e3d6000fd5b505050506040513d601f19601f820116820180604052508101906117eb9190612103565b5061184f83600360003373ffffffffffffffffffffffffffffffffffffffff1673ffffffffffffffffffffffffffffffffffffffff16815260200190815260200160002060008581526020019081526020016000205461200990919063ffffffff16565b600360003373ffffffffffffffffffffffffffffffffffffffff1673ffffffffffffffffffffffffffffffffffffffff168152602001908152602001600020600084815260200190815260200160002081905550505050565b60606005600084815260200190815260200160002060008360018111156118f8577f4e487b7100000000000000000000000000000000000000000000000000000000600052602160045260246000fd5b8152602001908152602001600020805480602002602001604051908101604052809291908181526020016000905b82821015611a5d57838290600052602060002090600502016040518060c0016040529081600082015481526020016001820160009054906101000a900473ffffffffffffffffffffffffffffffffffffffff1673ffffffffffffffffffffffffffffffffffffffff1673ffffffffffffffffffffffffffffffffffffffff1681526020016001820160149054906101000a900460ff1660018111156119f4577f4e487b7100000000000000000000000000000000000000000000000000000000600052602160045260246000fd5b6001811115611a2c577f4e487b7100000000000000000000000000000000000000000000000000000000600052602160045260246000fd5b8152602001600282015481526020016003820154815260200160048201548152505081526020019060010190611926565b50505050905092915050565b80600073ffffffffffffffffffffffffffffffffffffffff166001600083815260200190815260200160002060010160009054906101000a900473ffffffffffffffffffffffffffffffffffffffff1673ffffffffffffffffffffffffffffffffffffffff161415611b10576040517f08c379a0000000000000000000000000000000000000000000000000000000008152600401611b0790612649565b60405180910390fd5b600360003373ffffffffffffffffffffffffffffffffffffffff1673ffffffffffffffffffffffffffffffffffffffff16815260200190815260200160002060008381526020019081526020016000205483600360003373ffffffffffffffffffffffffffffffffffffffff1673ffffffffffffffffffffffffffffffffffffffff168152602001908152602001600020600085815260200190815260200160002054611bbd919061274f565b11611bc757600080fd5b6001600083815260200190815260200160002060010160009054906101000a900473ffffffffffffffffffffffffffffffffffffffff1673ffffffffffffffffffffffffffffffffffffffff166323b872dd3330866040518463ffffffff1660e01b8152600401611c3a93929190612543565b602060405180830381600087803b158015611c5457600080fd5b505af1158015611c68573d6000803e3d6000fd5b505050506040513d601f19601f82011682018060405250810190611c8c9190612103565b50611cf083600360003373ffffffffffffffffffffffffffffffffffffffff1673ffffffffffffffffffffffffffffffffffffffff16815260200190815260200160002060008581526020019081526020016000205461201f90919063ffffffff16565b600360003373ffffffffffffffffffffffffffffffffffffffff1673ffffffffffffffffffffffffffffffffffffffff168152602001908152602001600020600084815260200190815260200160002081905550505050565b611d51612001565b73ffffffffffffffffffffffffffffffffffffffff16611d6f611461565b73ffffffffffffffffffffffffffffffffffffffff1614611dc5576040517f08c379a0000000000000000000000000000000000000000000000000000000008152600401611dbc90612669565b60405180910390fd5b600073ffffffffffffffffffffffffffffffffffffffff168173ffffffffffffffffffffffffffffffffffffffff161415611e35576040517f08c379a0000000000000000000000000000000000000000000000000000000008152600401611e2c90612629565b60405180910390fd5b8073ffffffffffffffffffffffffffffffffffffffff1660008054906101000a900473ffffffffffffffffffffffffffffffffffffffff1673ffffffffffffffffffffffffffffffffffffffff167f8be0079c531659141344cd1fd0a4f28419497f9722a3daafe3b4186f6b6457e060405160405180910390a3806000806101000a81548173ffffffffffffffffffffffffffffffffffffffff021916908373ffffffffffffffffffffffffffffffffffffffff16021790555050565b611f7534600360003373ffffffffffffffffffffffffffffffffffffffff1673ffffffffffffffffffffffffffffffffffffffff16815260200190815260200160002060007f455448000000000000000000000000000000000000000000000000000000000081526020019081526020016000205461201f90919063ffffffff16565b600360003373ffffffffffffffffffffffffffffffffffffffff1673ffffffffffffffffffffffffffffffffffffffff16815260200190815260200160002060007f4554480000000000000000000000000000000000000000000000000000000000815260200190815260200160002081905550565b60008183611ff991906127a5565b905092915050565b600033905090565b6000818361201791906127ff565b905092915050565b6000818361202d919061274f565b905092915050565b60008135905061204481612a59565b92915050565b60008151905061205981612a70565b92915050565b60008135905061206e81612a87565b92915050565b60008135905061208381612a9e565b92915050565b60008135905061209881612aae565b92915050565b6000602082840312156120b057600080fd5b60006120be84828501612035565b91505092915050565b600080604083850312156120da57600080fd5b60006120e885828601612035565b92505060206120f98582860161205f565b9150509250929050565b60006020828403121561211557600080fd5b60006121238482850161204a565b91505092915050565b60006020828403121561213e57600080fd5b600061214c8482850161205f565b91505092915050565b6000806040838503121561216857600080fd5b60006121768582860161205f565b925050602061218785828601612035565b9150509250929050565b600080604083850312156121a457600080fd5b60006121b28582860161205f565b92505060206121c385828601612074565b9150509250929050565b6000806000606084860312156121e257600080fd5b60006121f08682870161205f565b935050602061220186828701612089565b925050604061221286828701612089565b9150509250925092565b60008060006060848603121561223157600080fd5b600061223f86828701612074565b93505060206122508682870161205f565b925050604061226186828701612089565b9150509250925092565b6000806000806080858703121561228157600080fd5b600061228f87828801612074565b94505060206122a08782880161205f565b93505060406122b187828801612089565b92505060606122c287828801612089565b91505092959194509250565b6000602082840312156122e057600080fd5b60006122ee84828501612089565b91505092915050565b6000806040838503121561230a57600080fd5b600061231885828601612089565b92505060206123298582860161205f565b9150509250929050565b600061233f838361248f565b60c08301905092915050565b61235481612833565b82525050565b61236381612833565b82525050565b600061237482612715565b61237e818561272d565b935061238983612705565b8060005b838110156123ba5781516123a18882612333565b97506123ac83612720565b92505060018101905061238d565b5085935050505092915050565b6123d081612851565b82525050565b6123df81612851565b82525050565b6123ee81612898565b82525050565b6123fd81612898565b82525050565b600061241060178361273e565b915061241b8261297b565b602082019050919050565b600061243360268361273e565b915061243e826129a4565b604082019050919050565b600061245660158361273e565b9150612461826129f3565b602082019050919050565b600061247960208361273e565b915061248482612a1c565b602082019050919050565b60c0820160008201516124a5600085018261250a565b5060208201516124b8602085018261234b565b5060408201516124cb60408501826123e5565b5060608201516124de60608501826123c7565b5060808201516124f1608085018261250a565b5060a082015161250460a085018261250a565b50505050565b6125138161288e565b82525050565b6125228161288e565b82525050565b600060208201905061253d600083018461235a565b92915050565b6000606082019050612558600083018661235a565b612565602083018561235a565b6125726040830184612519565b949350505050565b600060408201905061258f600083018561235a565b61259c6020830184612519565b9392505050565b600060208201905081810360008301526125bd8184612369565b905092915050565b60006020820190506125da60008301846123d6565b92915050565b60006040820190506125f560008301856123d6565b612602602083018461235a565b9392505050565b6000602082019050818103600083015261262281612403565b9050919050565b6000602082019050818103600083015261264281612426565b9050919050565b6000602082019050818103600083015261266281612449565b9050919050565b600060208201905081810360008301526126828161246c565b9050919050565b600060208201905061269e6000830184612519565b92915050565b600060c0820190506126b96000830189612519565b6126c6602083018861235a565b6126d360408301876123f4565b6126e060608301866123d6565b6126ed6080830185612519565b6126fa60a0830184612519565b979650505050505050565b6000819050602082019050919050565b600081519050919050565b6000602082019050919050565b600082825260208201905092915050565b600082825260208201905092915050565b600061275a8261288e565b91506127658361288e565b9250827fffffffffffffffffffffffffffffffffffffffffffffffffffffffffffffffff0382111561279a5761279961291d565b5b828201905092915050565b60006127b08261288e565b91506127bb8361288e565b9250817fffffffffffffffffffffffffffffffffffffffffffffffffffffffffffffffff04831182151516156127f4576127f361291d565b5b828202905092915050565b600061280a8261288e565b91506128158361288e565b9250828210156128285761282761291d565b5b828203905092915050565b600061283e8261286e565b9050919050565b60008115159050919050565b6000819050919050565b600081905061286982612a45565b919050565b600073ffffffffffffffffffffffffffffffffffffffff82169050919050565b6000819050919050565b60006128a38261285b565b9050919050565b60006128b58261288e565b915060008214156128c9576128c861291d565b5b600182039050919050565b60006128df8261288e565b91507fffffffffffffffffffffffffffffffffffffffffffffffffffffffffffffffff8214156129125761291161291d565b5b600182019050919050565b7f4e487b7100000000000000000000000000000000000000000000000000000000600052601160045260246000fd5b7f4e487b7100000000000000000000000000000000000000000000000000000000600052602160045260246000fd5b7f42616c616e6365206e6f742073756666696369656e742e000000000000000000600082015250565b7f4f776e61626c653a206e6577206f776e657220697320746865207a65726f206160008201527f6464726573730000000000000000000000000000000000000000000000000000602082015250565b7f546f6b656e20646f6573206e6f742065786973742e0000000000000000000000600082015250565b7f4f776e61626c653a2063616c6c6572206973206e6f7420746865206f776e6572600082015250565b60028110612a5657612a5561294c565b5b50565b612a6281612833565b8114612a6d57600080fd5b50565b612a7981612845565b8114612a8457600080fd5b50565b612a9081612851565b8114612a9b57600080fd5b50565b60028110612aab57600080fd5b50565b612ab78161288e565b8114612ac257600080fd5b5056fea26469706673582212204752e4f4ebd341532df30d59f4861552f1c91739243d3853671ebd552664bc5864736f6c63430008030033",
  "immutableReferences": {},
  "source": "pragma solidity ^0.8.0;\npragma experimental ABIEncoderV2;\n\nimport \"./Wallet.sol\";\n\ncontract Dex is Wallet {\n\n    using SafeMath for uint;\n\n    enum Side {\n        BUY, // 0\n        SELL // 1\n    }\n\n    struct Order {\n        uint id;\n        address trader;\n        Side side;\n        bytes32 ticker;\n        uint amount;\n        uint price;\n    }\n\n    uint public nextOrderId = 0;\n\n    // ticker => Side => Order[];\n    mapping(bytes32 => mapping(uint  => Order[])) public orderBook;\n\n    function depositETH() public payable {\n        balances[msg.sender][\"ETH\"] = balances[msg.sender][\"ETH\"].add(msg.value);\n    }\n\n    function getOrderBook(bytes32 ticker, Side side) view public returns (Order[] memory) {\n        return orderBook[ticker][uint(side)];\n        // getOrderBook(bytes32(\"LINK\"), Side.BUY)\n    }\n\n    function createLimitOrder(Side side, bytes32 ticker, uint amount, uint price) public {\n        if(side == Side.BUY) {\n            require(balances[msg.sender][\"ETH\"] >= amount.mul(price));\n        }\n        else if(side == Side.SELL) {\n            require(balances[msg.sender][ticker] >= amount);\n        }\n\n        // [Order1, Order2, ...] - list of Orders\n        Order[] storage orders = orderBook[ticker][uint(side)];\n        orders.push(\n            Order(nextOrderId, msg.sender, side, ticker, amount, price)\n        );\n\n        // Bubble sort\n        uint i = orders.length > 0 ? orders.length - 1 : 0;\n\n        if(side == Side.BUY) {          \n            while(i > 0) {\n                if(orders[i - 1].price > orders[i].price) {\n                    break;\n                }\n                Order memory orderToMove = orders[i - 1];\n                orders[i - 1] = orders[i];\n                orders[i] = orderToMove;\n                i--;\n            }\n        } \n        else if(side == Side.SELL) {\n            while(i > 0) {\n                if(orders[i - 1].price < orders[i].price) {\n                    break;\n                }\n                Order memory orderToMove = orders[i - 1];\n                orders[i - 1] = orders[i];\n                orders[i] = orderToMove;\n                i--;\n            }\n        }\n        nextOrderId++;\n    }\n\n    function createMarketOrder(Side side, bytes32 ticker, uint amount) public {\n\n    }\n\n}",
  "sourcePath": "/Users/vrodikov/workspace/ethereum/ether-201/dex/contracts/Dex.sol",
  "compiler": {
    "name": "solc",
    "version": "0.8.3+commit.8d00100c.Emscripten.clang"
  },
  "schemaVersion": "3.3.4",
  "updatedAt": "2021-04-19T18:36:54.579Z",
  "networkType": "ethereum",
  "devdoc": {
    "kind": "dev",
    "methods": {
      "owner()": {
        "details": "Returns the address of the current owner."
      },
      "renounceOwnership()": {
        "details": "Leaves the contract without owner. It will not be possible to call `onlyOwner` functions anymore. Can only be called by the current owner. NOTE: Renouncing ownership will leave the contract without an owner, thereby removing any functionality that is only available to the owner."
      },
      "transferOwnership(address)": {
        "details": "Transfers ownership of the contract to a new account (`newOwner`). Can only be called by the current owner."
      }
    },
    "version": 1
  },
  "userdoc": {
    "kind": "user",
    "methods": {},
    "version": 1
  }
}